:100000000EC013C012C011C010C00FC00EC00DC072
:100010000CC00BC00AC009C008C007C006C011242C
:100020001FBECFEDCDBF1FD057C0EACF9C0140ED22
:1000300057E02150310908F40895CA010197F1F7FA
:10004000F8CF85E088BD85E090E0F0DF18BC88EC53
:1000500090E0ECCF84E188BD86E990E0E7DF18BC52
:1000600088EC90E0E3CFA39A83EA87B986EC86B95F
:100070003699FECF369A3699FECFC5B182E087BB5E
:1000800081E28ABD81E083BF81EA87B9A29A86ECCA
:1000900086B9479A3798BB9AC39AC43680F488EEDB
:1000A00093E0C4DFCA3070F4CCDF88EE93E0BEDFAB
:1000B000C1110DC0C6DF88EE93E0B8DFFCCFC45697
:1000C000C9DFEBCFCA50C6DFCA30E0F7EECFC15070
:0C00D000C1DFC111FCCFEFCFF894FFCFCF
:00000001FF
